:100000000C942A000C947C000C948B000C943C0003
:100010000C943C000C943C000C943C000C943C0070
:100020000C943C000C943C000C943C000C94640038
:100030000C943C000C943C000C943C000C943C0050
:100040000C943C000C943C000C943C000C943C0040
:100050000C943C0011241FBECFE5D8E0DEBFCDBF1D
:1000600020E0A0E6B0E001C01D92A436B207E1F79F
:100070000E949A000C94AA000C9400008BB7806434
:100080008BBF85B7836085BF08958BB780648BBFB6
:1000900084E682BF89B7816089BF83B7856083BFEB
:1000A00008958BB780688BBF85B78C6085BF089536
:1000B00083E78CBF83B7886483BF83B7806383BFC4
:1000C00083B7856083BF08951F920F920FB60F927A
:1000D00011248F9384E682BF8CB78E3610F483E7A9
:1000E0008CBF8CB7813F10F08BEE8CBF8F910F903F
:1000F0000FBE0F901F9018951F920F920FB60F9280
:1001000011248F938CB7865F8CBF8F910F900FBE99
:100110000F901F9018951F920F920FB60F921124F7
:100120008F938CB78A508CBF8F910F900FBE0F901A
:100130001F901895F8948FEF87BB18BA11BA82BB3D
:100140000E9445000E9458000E943E000E945100FB
:080150007894FFCFF894FFCF73
:00000001FF
