:100000000C942A000C9447000C9447000C94470071
:100010000C9447000C9447000C9447000C94470044
:100020000C9447000C94FD000C9447000C945D0068
:100030000C9447000C9447000C9447000C94470024
:100040000C9447000C9447000C9447000C94470014
:100050000C94470011241FBECFE5D8E0DEBFCDBF12
:1000600010E0A0E6B0E0E4E7F2E002C005900D92F7
:10007000AC37B107D9F720E0ACE7B0E001C01D9282
:10008000A838B207E1F70E942D010C9438010C94B6
:1000900000008EB584608EBD89B7846089BF88EB0F
:1000A0009BE09DBD8CBD089583B7846083BF89B7F5
:1000B000816089BF83E882BF08951F920F920FB6B7
:1000C0000F9211248F939F93EF93FF93E0918600FB
:1000D000F0918700EE0FFF1FE05AFF4F808185BB34
:1000E0008091860090918700892B51F4E0918200E5
:1000F000F0918300EE0FFF1FE859FF4F808188BB0E
:100100008091860090918700019751F4E0918400DE
:10011000F0918500EE0FFF1FE859FF4F808188BBEB
:100120008091860090918700029751F4E0917C00C5
:10013000F0917D00EE0FFF1FE859FF4F808188BBD3
:100140008091860090918700039751F4E0917E00A2
:10015000F0917F00EE0FFF1FE859FF4F808188BBB1
:10016000809186009091870001968430910529F056
:10017000909387008093860004C0109287001092AD
:100180008600809180009091810001968A309105CF
:1001900029F0909381008093800026C01092810006
:1001A0001092800080917E0090917F0002968A30AC
:1001B000910529F090937F0080937E0015C01092E6
:1001C0007F0010927E0080917C0090917D000296CD
:1001D0008A30910529F090937D0080937C0004C0C3
:1001E00010927D0010927C00FF91EF919F918F9172
:1001F0000F900FBE0F901F9018951F920F920FB681
:100200000F9211248F939F93809184009091850089
:1002100001968A30910529F090938500809384009F
:1002200015C01092850010928400809182009091F8
:10023000830001968630910529F090938300809386
:10024000820004C010928300109282009F918F91CF
:100250000F900FBE0F901F9018958FEF84BB85BB3A
:1002600087BB88BB0E9449000E9454007894FFCF4E
:04027000F894FFCF30
:10027400FE00FD00FB00F7008100CF009200860025
:0C028400CC00A400A0008F0080008400CB
:00000001FF
