:100000000C942A000C9447000C9447000C94470071
:100010000C9447000C9447000C9447000C94470044
:100020000C9447000C945A000C9447000C94BE00AA
:100030000C9447000C9447000C9447000C94470024
:100040000C9447000C9447000C9447000C94470014
:100050000C94470011241FBECFE5D8E0DEBFCDBF12
:1000600010E0A0E6B0E0E8EBF1E002C005900D92F0
:10007000A636B107D9F720E0A6E6B0E001C01D9290
:10008000A836B207E1F70E94CF000C94DA000C9476
:10009000000083B7856083BF89B7816089BF83E62D
:1000A00082BF08951FBC8EB584608EBD89B7846001
:1000B00089BF08951F920F920FB60F9211242F93AC
:1000C0003F934F935F938F939F9380ED94E89DBDF3
:1000D0008CBD80916000909161008130910581F428
:1000E000409164005091650050936300409362001A
:1000F00020916600309167004217530731F518C010
:100100008038910549F42091660030916700309362
:100110006300209362000CC0209162003091630064
:1001200040916600509167002417350739F49A0111
:10013000959587959093610080936000809164000D
:10014000909165008217930751F48091600090911F
:100150006100880F991F90936100809360008091E7
:100160006000809585BB9F918F915F914F913F91EA
:100170002F910F900FBE0F901F9018951F920F9206
:100180000FB60F9211248F9383E682BF88B38095B8
:1001900088BB8F910F900FBE0F901F9018958FEF17
:1001A00087BB88BB84BB85BB78940E9449000E94B2
:0801B0005200FFCFF894FFCFCD
:0601B8000100040001003B
:00000001FF
