:100000000C942A000C9434000C9434000C943400AA
:100010000C9434000C9434000C9434000C94340090
:100020000C9434000C9434000C9434000C943F0075
:100030000C9434000C9434000C9434000C94340070
:100040000C9434000C9434000C9434000C94340060
:100050000C94340011241FBECFE5D8E0DEBFCDBF25
:100060000E9460000C9497000C94000083B7856098
:1000700083BF89B7816089BF83E682BF08951F92DD
:100080000F920FB60F9211248F938FEF85BB8F9134
:100090000F900FBE0F901F9018953E9A389A379A7E
:1000A00086B1876086B9089527B187709927822B1A
:1000B00087B9369A349BFECF349A84B195B10895AE
:1000C0001ABA8FEF8BBB17BA88BB84BB85BB0E9463
:1000D0004D000E9436007894CCEF13EFDFEC0FE375
:1000E00080E090E00E94540084B195B1813093404B
:1000F00008F0C5BB84B195B18130924030F084B135
:1001000095B18130934008F415BB84B195B181302D
:10011000914030F084B195B18130924008F4D5BB64
:1001200084B195B181309140D8F605BBD9CFF89410
:02013000FFCFFF
:00000001FF
