:100000000C942A000C9448000C946F000C943F0050
:100010000C943F000C943F000C943F000C943F0064
:100020000C943F000C943F000C943F000C943F0054
:100030000C943F000C943F000C943F000C943F0044
:100040000C943F000C943F000C943F000C943F0034
:100050000C943F0011241FBECFE5D8E0DEBFCDBF1A
:1000600010E0A0E6B0E0E0E4F1E002C005900D92FF
:10007000A236B107D9F70E9493000C949E000C940D
:1000800000008BB780648BBF85B7836085BF089500
:100090001F920F920FB60F9211248F939F9380910E
:1000A0006000909161008F3F910539F0880F991F92
:1000B000019690936100809360008091600080952C
:1000C00085BB9F918F910F900FBE0F901F90189539
:1000D0008BB780688BBF85B78C6085BF08951F92F2
:1000E0000F920FB60F9211242F933F938F939F93EC
:1000F000209160003091610021503109C90199239C
:100100000CF401969595879580936000909361001B
:10011000809585BB9F918F913F912F910F900FBE3E
:100120000F901F90189511BA8FEF82BB84BB85BBCF
:100130000E9441000E9468007894FFCFF894FFCF9E
:020140000100BC
:00000001FF
