:100000000C942A000C9447000C9447000C94470071
:100010000C9447000C9447000C9447000C94470044
:100020000C9447000C941D010C9447000C94130190
:100030000C9447000C9447000C9447000C94470024
:100040000C9447000C9447000C9447000C94470014
:100050000C94470011241FBECFE5D8E0DEBFCDBF12
:1000600010E0A0E6B0E0E2E7F5E002C005900D92F6
:10007000AC37B107D9F720E0ACE7B0E001C01D9282
:10008000A03DB207E1F70E947E010C94B7020C94E8
:1000900000008091920090919300892B51F4E0919F
:1000A0008A00F0918B00EE0FFF1FE859FF4F80810F
:1000B00088BB8091920090919300019759F4E09150
:1000C0008C00F0918D00EE0FFF1FE859FF4F8081EB
:1000D00088BBC7988091920090919300029751F449
:1000E000E0918E00F0918F00EE0FFF1FE859FF4F57
:1000F000808188BB8091920090919300039751F486
:10010000E0919000F0919100EE0FFF1FE859FF4F32
:10011000808188BB08958091920090919300892BF3
:1001200051F4E0918200F0918300EE0FFF1FE85937
:10013000FF4F808188BB809192009091930001973E
:1001400059F4E0918400F0918500EE0FFF1FE8590B
:10015000FF4F808188BBC798809192009091930057
:10016000029751F4E0918600F0918700EE0FFF1F97
:10017000E859FF4F808188BB809192009091930055
:10018000039751F4E0918800F0918900EE0FFF1F72
:10019000E859FF4F808188BB08958FEF88BBE091BD
:1001A0009200F0919300EE0FFF1FE05AFF4F808105
:1001B00085BB0E9427010E94690180917C0090917B
:1001C0007D00892B19F40E94490002C00E948B0017
:1001D000809192009091930001968430910529F0CE
:1001E0009093930080939200089510929300109240
:1001F000920008958FEF84BB85BB87BB88BB11BA83
:1002000082BB8ABB8BBB08951DBC1CBC1FBC84E099
:100210008EBD089583B7846083BF89B7816089BF2D
:1002200083E882BF08951F920F920FB60F92112498
:100230000F900FBE0F901F9018951F920F920FB640
:100240000F9211240F900FBE0F901F90189520E071
:1002500030E061E080B390E080959095022E02C07E
:10026000959587950A94E2F78170F901E456FF4F5E
:1002700090818917A9F0F901EC56FF4F90819F5F9B
:1002800090839081953080F0F901E456FF4F808390
:100290008081813049F4F901EC55FF4F608304C03F
:1002A000F901EC56FF4F10822F5F3F4F2830310588
:1002B00089F60895282F30E0F901EC55FF4F808131
:1002C000813029F4F901EC55FF4F1082089580E048
:1002D000089580E00E945A01882321F010927D0049
:1002E00010927C0081E00E945A01882331F081E065
:1002F00090E090937D0080937C00089578940E9414
:10030000FA000E944A020E948702FFCF8091840077
:1003100090918500019690938500809384008A30A7
:10032000910571F4109285001092840080918200F2
:1003300090918300019690938300809382000895AA
:10034000049771F48091820090918300029741F4A8
:100350001092850010928400109283001092820007
:1003600008951092810010928000809188009091F1
:100370008900019690938900809388000A9769F418
:1003800080918600909187000196909387008093DA
:1003900086001092890010928800809186009091CA
:1003A0008700069731F410928700109286000E9411
:1003B0008601089580918C0090918D000196909314
:1003C0008D0080938C008091800090918100019637
:1003D0009093810080938000CC9711F40E94B1012A
:1003E00080918C0090918D000A97A9F410928D0055
:1003F00010928C0080918A0090918B00019686303B
:10040000910529F090938B0080938A0008951092B3
:100410008B0010928A00089580917E0090917F0059
:10042000019690937F0080937E00449741F58091E0
:1004300090009091910002968A30910529F0909356
:1004400091008093900015C010929100109290003E
:1004500080918E0090918F0001968A30910529F04D
:1004600090938F0080938E0004C010928F001092A2
:100470008E000E94CD0010927F0010927E000895A1
:10048000089508950E940C020E94CD0008950E94D4
:10049000DA010895ECEAF0E082E492E0918380834F
:1004A0008EE390E0938382831782168215821482F2
:1004B000108680E492E09287818781E792E09487BA
:1004C000838783E190E0908B878716861586118A53
:1004D00081E492E0938B828B89E698E1958B848B03
:1004E00085E290E0918F808F178A168A128E87E4BA
:1004F00092E0948F838F83E294EF968F858F88E3C9
:1005000090E092A381A310A2178E13A208950E94D7
:100510000401789400ED10E0FF24F394CCEAD0E0DD
:10052000888581110DC08CB59DB52E813F818217C4
:100530009307C0F08CB59DB59D838C83F88612C05F
:100540008CB59DB52C813D81821B930B2A813B810B
:100550008217930738F08CB59DB59D838C83E88115
:10056000F98109952996C017D107D1F6D7CFF8940C
:02057000FFCFBB
:10057200FE00FD00FB00F7008100CF009200860024
:0C058200CC00A400A0008F0080008400CA
:00000001FF
